S00C0000446F6F722E7372656384
S11300000C942A000C9434000C9434000C943400A6
S11300100C9434000C9434000C9434000C9434008C
S11300200C9434000C9434000C9434000C9434007C
S11300300C9434000C9434000C9434000C9434006C
S11300400C9434000C9434000C9434000C9434005C
S11300500C94340011241FBECFE5D8E0DEBFCDBF21
S11300600E9441000C9485000C94000090BD89B955
S113007088E18AB986E880BD08955F9BFECF8CB184
S1130080089583E390E00E9436008FEF8ABB84BB1F
S113009087B38E7F87BBB09B0FC085B3816085BB60
S11300A02FEF31E18AE7215030408040E1F700C072
S11300B0000085B38E7F85BB0E943D00813411F022
S11300C0813679F495EA9BBB9FE095BB9FEF21E1D4
S11300D03AE7915020403040E1F700C000001BBADD
S11300E015BA823411F08236B1F68AE58BBB80EF03
S11300F085BB8FEF91E12AE7815090402040E1F7E2
S111010000C000001BBA15BAC6CFF894FFCF9A
S9030000FC
