S01700004763634170706C69636174696F6E312E737265635B
S11300000C943E000C9448000C9448000C94480056
S11300100C9448000C9448000C9448000C9448003C
S11300200C9448000C9448000C9448000C9448002C
S11300300C9448000C944A000C9448000C9448001A
S11300400C9448000C9448000C9448000C9448000C
S11300500C9448009500C0007700C0008800C000E0
S1130060C000C000C000C000AC00C000C000C000A0
S1130070C000C000A200B600C000630011241FBE6F
S1130080CFE5D8E0DEBFCDBF0E94CB000C94F200D8
S11300900C9400001F920F920FB60F9211248F93AD
S11300A09F93AF93BF93EF93FF93ECB18E2F90E0A8
S11300B0FC01E254F109E431F10508F061C0E65DA8
S11300C0FF4F0C94EC008CB78CB7865F8CBF88B361
S11300D08F7D88BB88B3806888BB8BE792E90197E2
S11300E0F1F700C0000088B38F7788BB49C08CB794
S11300F08CB78A508CBF88B3806488BB8BE792E945
S11301000197F1F700C0000088B38F7B88BB38C02B
S113011088B38D7F88BB8BB38D7F8BBB88B38160A5
S113012088BB8BB381608BBB2BC088B38E7F88BBAD
S11301308BB38E7F8BBB88B3826088BB8BB38260AA
S11301408BBB1EC088B38C7F88BB8BB38C7F8BBB6F
S113015088B3816088BB14C088B38C7F88BB8BB3A1
S11301608C7F8BBB8BB381608BBB0AC088B38360ED
S113017088BB8BB383608BBB1CBE88B3806288BB97
S1130180FF91EF91BF91AF919F918F910F900FBE0F
S11301900F901F90189587B38F6E87BB8AB38360C7
S11301A08ABB18BA1BBA88E483BF83B7806283BF53
S11301B083B7826083BF12BE1CBE8AB180618AB9D4
S11301C08EE880BD80E380BD85E089B910BC8AB12A
S11301D080688AB97894FFCFEE0FFF1F0590F491E1
S10B01E0E02D0994F894FFCF0F
S9030000FC
